:020000040800F2
:10500000E0370020D5500008B59B0008898E0008C5
:105010000000000000000000000000000000000090
:1050200000000000000000000000000083A3000852
:105030000000000000000000019C00088BA3000895
:10504000E7500008E7500008E7500008E750000864
:10505000E7500008E7500008E7500008E750000854
:10506000E7500008E7500008E7500008E750000844
:10507000E7500008E750000899AA00089DA400081E
:10508000E7500008E7500008E75000080000000063
:10509000E7500008E7500008E7500008E750000814
:1050A000E7500008E7500008E750000879AA000818
:1050B00089AA00089D9C000800000000E750000835
:1050C0000348854600F082FE00480047DDC800081E
:1050D000E03700200448804704480047FEE7FEE729
:1050E000FEE7FEE7FEE7FEE745A40008C150000822
:1050F00030B50B46014600202022012409E00D4670
:10510000D5409D4205D31D469540491B25469540F7
:1051100040191546521E002DF1DC30BD70B500243B
:105120002546002801DA01244042002901DA012540
:105130004942FFF7DDFFAC4200D04042002C00D0D6
:10514000494270BDF0B51FB40646002082B0054646
:105150004024019100901BE0019922460F46304601
:1051600000F0B2FC049A059B801A994110D31046B6
:105170001946224600F098FC361A8F4101972246C4
:1051800001200021009F00F08FFC38184D41009055
:105190002046641E0028DFDC019B00982946324629
:1051A00007B0F0BD38B50446C0681821401E48431A
:1051B000A16840183C214843616840183C2148439D
:1051C0002168451860690C2148432169401869210C
:1051D000C900401A3021FFF7A1FF114A504342197C
:1051E000084600921A2902DB0E49511800910C2141
:1051F000FFF794FF0C4A5043009A801800900B4828
:1052000006E0491E425C074B5A43009BD2180092AD
:105210000029F6DC2146684600F082FC009838BD83
:10522000801F8607805101008033E10169D10008A9
:1052300003460B439B0703D009E008C9121F08C0AF
:10524000042AFAD203E00B780370401C491C521E5A
:10525000F9D27047D2B201E00270401C491EFBD265
:1052600070470022F6E710B513460A460446194671
:10527000FFF7F0FF204610BD30B505462A460B4625
:1052800010781C78521C5B1C002801D0A042F7D07B
:10529000002C03D0002802D06D1CEFE7284630BD5B
:1052A000421C0178401C0029FBD1801A7047032161
:1052B000001D401E037812021A43491EF9D51046FC
:1052C0007047034603220870000A491C521EFAD593
:1052D000184670470FB400B58DB009900B9010A917
:1052E00000200091C0430A9000200C9006480690D0
:1052F000064807906A4609A80F9900F061FC0DB0B6
:1053000008BC04B018470000E15B0008015C00081D
:10531000FFB50027FF4383B000205C6801909E68C2
:105320001D46A9697F1C049888470090296A884710
:105330000028F6D10098401C0CD003204002844382
:10534000002E19DD600614D500982B2809D02D28D1
:105350000FD103E00020C04307B0F0BD0120800260
:105360000443A9697F1C04988847761E0090002E8C
:1053700002DD0098302803D00598002825D035E0BC
:10538000012040020443A969761E7F1C04988847C7
:105390000090002E03DD782805D0582803D005980A
:1053A000002810D022E00598002801D010281DD137
:1053B000012040028443A969761E7F1C0498884717
:1053C0000090102002E0082000E00A2005900DE087
:1053D000012149020C43059A0199761E5143081890
:1053E0000190A9697F1C049888470090002E05DD74
:1053F0000599009800F0CEFB0028E9DAE9690498E5
:105400008847A00502D40120C043A5E7E00722D1C8
:10541000600611D56005019800D5404229680A1D33
:105420002A600968220501D5087014E0220701D519
:10543000088010E008600EE02868011D29600068FF
:10544000210502D50199017005E02107019901D5D7
:10545000018000E0016038467EE7FFB5002083B0A0
:10546000009050680190916914460026976804984E
:10547000884705460C990698084305D009E0A169BC
:10548000761C049888470546216A284688470028E4
:10549000F5D1681C03D00198C00704D017E00020A4
:1054A000C04307B0F0BD2068011D21600068009076
:1054B0000DE00198C00704D1009805700098401CC9
:1054C0000090A169761C7F1E049888470546002F2E
:1054D0001CDD681C1AD0069800280FD0E817C00EF3
:1054E000401941118A0006994009511840012A1AB1
:1054F0000968012090400142DBD107E00C980028A8
:10550000D7D1216A284688470028D2D0E16904987B
:1055100088470C98002807D1002E05DD0198C007A8
:1055200002D1009800210170A068B84204DD0C98F7
:10553000002804D0002F02D00120C043B1E730463C
:10554000AFE7024670B54A40D30FDB0740002DD0CD
:105550004A002AD0010E140E000212020919400A54
:10556000520A8418E50104465443000A120A2E0424
:105570005043A4194219200CC543AA18120C012546
:10558000AD03521C521912047F39240400D0521C5E
:10559000104301D44000491EC2B20C06C0092018B5
:1055A000401C4008802A02D003E0002070BD400863
:1055B0004000002900DA0020184370BD70B5024693
:1055C0004A40D50F40004A00ED0740085208002825
:1055D00014D0002A12D0C40DD30D41020120C00501
:1055E0005202490A520AE41A091812187D349142EB
:1055F00001D3641C00E04900002C01DA002070BDDA
:105600000023914201D3891A03434008490000282E
:10561000F7D100290AD0914202D10121C90705E042
:10562000914201D2012101E00121C943E005C018E6
:10563000401900F0F7FA70BD420005D04200120E8A
:1056400052428A4201DB00207047C90508187047A2
:10565000F0B507460846584087B0C00F0490480090
:105660000E46590040084908BC1A884105D2384600
:1056700031461E4617460B46024658004008104366
:105680004CD0300D039040055900400D490D059058
:10569000401A0290402872DA18030121000B090514
:1056A0000843019004980092002805D001995242C5
:1056B0000020884100920190029840210A1A019925
:1056C000009800F0F1F905460C466B4607CB00F058
:1056D0000CFAC0197141039A0E0D0023D7175640DA
:1056E0001A467A40164344D0049A002A2DD0029AD2
:1056F000012A039A15DC1205C01A914101263605CC
:10570000001C7141D20F059ED207009301920296B0
:105710002A46234600F0D4FA07B0F0BD3846314699
:10572000FAE71605224A0F46B218C01AB7410121FE
:105730000905001C4F4100187F4111461818794196
:10574000E20F10436D19644113E0E2076D08154341
:105750006408C2071443039A01261205C01A914136
:105760003605001C7141CE07400830434908C01877
:1057700051412A46234600F096FACDE7FFE7049808
:1057800001224000C117121A00238B4104983146B0
:10579000C417381AA141EEE730B40124E40763408E
:1057A00030BC55E730B40124E407614030BC4FE71A
:1057B0000000E0FFF0B51FB488B00B9909980024F1
:1057C00048400999C00F490049080991C0070B9941
:1057D0000090490049080B9109990898A64608438A
:1057E0001CD00B990A98084318D00998012440004E
:1057F000420D4800410D099824050003000B204389
:1058000009900B980003000B20430B9050181C4983
:105810004018002201901446104605E00020014681
:105820000DB0F0BD032801DA034600E003239C46D7
:10583000C11A0AAE0AE05F0008ADED5B4F00F75BEE
:105840007D430027AA187C41491C5B1E6145F2DD9F
:10585000410004AB5A522104120C0A43240C401C90
:105860000828DFDB019802900099704601910090B2
:10587000059B049A0799069800F022FAD0E70000E9
:105880000DFCFFFFF0B50C465C4085B0E40FE4076B
:1058900003944C00002664085900944649080246C7
:1058A0000296224321D062460A431ED06200570D61
:1058B0004A000E032303550D012402462C492405FA
:1058C000781B1B0B360B4018234326436146009080
:1058D0001C46501AB44103D30098401C009002E0CB
:1058E000921800985B41002803DA0020014605B0B9
:1058F000F0BD0020012109050746864611E06446F7
:105900001D46141BB54106D36546521BB341744670
:1059100007430C43A646CD07400849082843921880
:105920005B4105460D43EAD11046184313D060464B
:10593000194650407140084306D06046101AB341E2
:1059400006D20122002306E000220123DB0702E049
:105950000122D2435310009874460105381C61415E
:10596000029C039D0019694100F09DF9BFE700000A
:10597000FD03000070B54B005B0803430BD04B00E8
:105980005C0D002633466542B341D417AD1AA341DE
:1059900002DB0020014670BD12053018514170BD78
:1059A00010B500229623114600F044F910BD000006
:1059B0000EB505490291002100910A460B4601915E
:1059C00000F07EF903B000BD33040000C20F4100B7
:1059D00040020123400ADB05D207090EC0187F29C7
:1059E00001DA00207047962903DC9623591AC84033
:1059F00001E096398840002AF4D040427047000008
:105A000070B5CD0F4A0009030123090B1B0519438B
:105A10000B4BED070024520D9A4201DA002070BDB5
:105A2000074B34339A4203DC9A1A00F04DF802E037
:105A30000449511888402C43F1D0404270BD000009
:105A4000FF030000CDFBFFFFC20FD207400040085C
:105A50000BD0C10D0723DB01C91840020905400A1C
:105A60001143C208400711437047002001467047A8
:105A7000CB0FDB07490010B5490802460A4307D09F
:105A80000A0D07240903E401090B121B002A01DC9B
:105A9000002010BDC900440F0C43C100E018D2051E
:105AA000801800F0BFF810BD10B5202A04DB0146B5
:105AB000203A9140002010BD914020239C1A0346BB
:105AC000E3401943904010BD10B5202A04DB08467E
:105AD000203AD040002110BD0B46D340D0402024B6
:105AE000A21A91400843194610BD10B5202A06DBC2
:105AF000CB170846203A1041C1170B4306E00B466E
:105B00001341D0402024A21A91400843194610BDE9
:105B100010B5024900F004F810BD0000B0330020B9
:105B200070B50C4600683C21FFF7E2FA21603C2189
:105B3000FFF7DEFA61601821FFF7DAFA0546A16087
:105B40000721001DFFF7D4FAA1610F48A90008182A
:105B50000E49FFF7CDFA0246443288086261E061DF
:105B60003B2802D3910700D0401C0021084B0A4675
:105B70002161995C814203D8401A521C2261F8E7E6
:105B8000401CE060204670BD6C0B0000B5050000B5
:105B900075D100083A2800D23038202302469A43B3
:105BA000412A01D310463738884201D30020C04330
:105BB000704700000268137851180160184670475A
:105BC00010B5D1600449516104491162002111618D
:105BD000114600F01BF910BDB55B0008F95D000827
:105BE0004268002A08D001680B78491C002B03D0BA
:105BF000521E06C0184670470121C160881E7047BA
:105C00004268002A0BD0C3680168002B07D1836863
:105C10008B4204D0491E521C06C000207047002051
:105C2000C0437047002904DA401C490001D14008F4
:105C30004000704770B40024050C05D11024000406
:105C400002D1002921D01124050E01D1000208340F
:105C5000050F01D10001241D850F01D18000A41C76
:105C6000002801DB4000641C002908D020252E1BE1
:105C70000D46F540A14000D001212943084301060B
:105C80001B1B000ADB1D02D5002070BC7047DB0522
:105C9000181880180029F8DA401C4900F5D170BCAA
:105CA00040084000704710B5002B08DA0024401C63
:105CB000614192185B411A4301D14008400010BD78
:105CC000F0B51FB482B005460C0003D0084604F0BE
:105CD00053FF02E004F050FF2030024600902146BE
:105CE0002846FFF7E1FE049B059A04460F46184339
:105CF0001143084314D0184610431BD0009840218C
:105D00000A1A18460599FFF7DFFE05460E46009A67
:105D100005990498FFF7C8FE084305D0012004E068
:105D20002046394607B0F0BD0020C11705430E4399
:105D30002C43374300990E986305401A7905E40A0D
:105D400000220C43FD0A0A3002D500200146E9E793
:105D50000105101969410C9C0D9D00196941FFF75F
:105D6000A2FFDFE74A0009030123090B1B051943C2
:105D70000A4B10B5520D9A4202DA0020014610BDBE
:105D8000064B34339A4203DC9A1AFFF79DFE10BD8E
:105D9000034BD218FFF788FE10BD0000FF03000080
:105DA000CDFBFFFF10B5002904DB0124E4074042CE
:105DB0008C412146002B04DB1C460123DB075242A9
:105DC000A341994200D1904210BD0000064C01252C
:105DD000064E05E0E36807CC2B430C3C9847103493
:105DE000B442F7D3FFF770F990D20008B0D20008A0
:105DF0000048704704D2000810B50446FFF7F8FFCA
:105E00000068005DC007C00F10BD0000F3B58DB085
:105E100000200A9001200B90002608460C300C460A
:105E200009906269012109989047051E2ED0252D01
:105E30002DD0216A8847002818D06269012109986D
:105E40009047216A88470028F7D1411E6269099866
:105E5000904700E0761CA1690D988847216A884721
:105E60000028F7D1E1690D988847DAE7A1690D9814
:105E700088470746A84201D1761CD2E7E1690D9810
:105E800088477F1C02D10A98002877D049E1002773
:105E900062693D463946099890472A280CD16269C3
:105EA000012109989047012506E00A214F433F1838
:105EB000303FEBD4102005436269012109989047D7
:105EC000014630390A2903D29B498F42DEDCECE7D8
:105ED000E90600D4994F6C280AD04C2810D06828C5
:105EE00024D06A282ED074280CD07A280AD00DE04D
:105EF00062690121099890476C2823D004211CE095
:105F0000202005436269012109989047A7606560D8
:105F100065284FD026DC582839D01ADC452849D0CE
:105F200012DC252834D04128B0D143E06269012138
:105F300009989047682802D008210D43E6E7012020
:105F4000C002DEE70220DCE7462833D047282CD108
:105F500030E05B2870D061282CD063286CD0642896
:105F600023D161E06F284FD009DC662822D0672852
:105F700020D0692826D06E2817D12EE0CDE07028D9
:105F80004DD073286FD075284ED078280DD154E0AD
:105F9000A1690D9888470546252800D16CE7E1697D
:105FA0000D9888476D1C00D16DE7BAE00A224CE0DD
:105FB0000A2252E0012023466A46C0430D99C0469A
:105FC000C046A3E02846402108436060A807234656
:105FD00001D5002239E000223FE0E80700D020E7A9
:105FE0002068011D21600068290501D5067018E7A9
:105FF000290701D5068014E7A90703D5F117066024
:1060000041600EE706600CE72846402108436060C7
:10601000A807234601D5082217E008221DE04849B9
:1060200028460840606016E028464021084360602A
:10603000A8072346BCD5B9E715E028464021084308
:106040006060A80707D5234610220120C0430D99A0
:10605000C046C0465AE0234610220120C0430D9995
:10606000FFF756F952E000210C910B46009163288E
:1060700002D05B2807D043E0E80601D40120A060ED
:10608000012000903CE062690121099890475E2858
:1060900005D101200C900146626909989047216959
:1060A000002906D10B4601AA8F00491CD3510829AB
:1060B000FADB002835D0216900290ED1C117C90E9D
:1060C00009184A11930001AA9A1849094901411A6D
:1060D0000120136888400343136062690121099815
:1060E00090475D28E5D10C98002808D0002001AB2E
:1060F00081005A58401CD2435A500828F8DB01ABA3
:1061000001202246C0430D99FFF7A7F900280ADABB
:10611000401C06D10B98002803D00020C0430FB0CC
:10612000F0BD0A98FBE7E90702D10A99491C0A91D8
:10613000361800200B9074E6CCCCCC0CFFFFFF7F10
:10614000F1F7FFFF70B58C180578401C6B075B0FEB
:1061500001D10378401C2A1106D10278401C03E0CB
:1061600006780E70401C491C5B1EF9D12B0705D424
:106170000023521E0DD40B70491CFAE70378401C13
:10618000CB1A921C03E01D780D70491C5B1C521E3B
:10619000F9D5A142D8D3002070BD000038B504461F
:1061A000064805490068FEF7A3FF604300E0401E73
:1061B00000900028FBD138BD40420F0014000020A1
:1061C000F8B50446006881688907890F012902D162
:1061D0000168C90722D18168114A102611400125A2
:1061E00000290ED18168294381600120FFF7D6FF85
:1061F00001F096F807460CE001F092F8C01B0A285F
:1062000007D9A06D3043A065E06D2843E06501200B
:10621000F8BD20680068C043C007EDD10020F8BD7C
:1062200017000080F8B504461A4800F09FF80121D5
:10623000FFF702FA0646FFF707FC05460F462A4617
:106240003B4615A004F074FC1948864202DA00208F
:1062500020601CE0284639460022164BFFF79CFAC6
:10626000154A164BFFF70EFB0022154BFFF7A2FA5B
:10627000FFF7C6FB64252060642800DD256011A0BF
:10628000216804F055FC2068642800DD2560206842
:10629000F8BD000002000004426174746572792048
:1062A000566F6C746167653A25660D0A0000000040
:1062B0000000704000000E40606666666666D63F6D
:1062C00000005940426174746572793A2564A3A54F
:1062D0000D0A000010B5012000F048F8FFF7B4FBEC
:1062E000054A064BFFF766FA054A064BFFF754FAD4
:1062F000FFF7BEFB10BD0000105839B4C8F61740B8
:106300009A9999999999C93FFEB50646009001203E
:1063100000030F46019000256946124800F07CFCFE
:10632000002411E00F4800F025FE64210D4800F024
:10633000C1FD0C4800F0BAFC8005FAD5094800F010
:10634000B7FC2D18641CE4B2BC42EBD306480190A4
:1063500069460096034800F05FFC39462846FEF780
:10636000C7FEFEBDF01200200110000070B5142120
:10637000FFF7CAFF054614211148FFF7C5FF06467F
:106380001048002D1BD0002E19D00F48008B410063
:106390004018FFF70DFB0B22D243FFF7EBFAFFF794
:1063A00067FB04463046FFF7FBFA06462846FFF730
:1063B000F7FA2146FFF7C5F83146FFF7FFF870BD41
:1063C00000000244000080BF6000F81F10B50122E9
:1063D0005102024800F09EFF012010BD0004005051
:1063E00010B5012100224902024800F093FF01206C
:1063F00010BD0000000400500EB50A280CD87D2204
:10640000D20002920123009102460193D721044851
:1064100001F030F8002801D000200EBD01200EBD93
:106420005013002070B504460C4800220C4D0EE0BD
:10643000A35C58400023C60702D04008684000E033
:1064400040085B1CDBB2082BF5D3521CD2B28A4247
:10645000EED3020A63185A70605470BDFFFF00004B
:1064600001A0000070B504460C4800220C4D0EE05F
:10647000A35C58400023C60702D04008684000E0F3
:1064800040085B1CDBB2082BF5D3521CD2B28A4207
:10649000EED3020A62546118487070BDFFFF00001D
:1064A00001A00000012282F31088428B002383F3B5
:1064B0001088002A1AD0002918D08268002A15D026
:1064C000038BD25C0A70012181F31088018B491C77
:1064D00089B20183C289914201D300210183418B9A
:1064E000491E4183002080F31088704701207047C7
:1064F000F0B505ACF0CC0EC0048045800021818051
:10650000C18041818181C181018147610661099911
:10651000816101210177F0BD10B5084900224A616F
:1065200007494B684C1523434B604B6808242343B1
:106530004B60C009C001026010BD0000882000202F
:106540000020024010B5214A00219069C30520486F
:1065500004D54169022319434161911593699B0553
:1065600005D54369012423434361630219439369B9
:106570005B0505D54369082423434361E3011943BF
:1065800093691B0505D543690424234343616302D2
:10659000194393699B0405D5436910242343436140
:1065A0006302194393699B0304D5446920231C4368
:1065B000446119439369DB0305D5436940242343B0
:1065C0004361A0020143916110BD00000020024020
:1065D0008820002070B5054600F0A2FE0646184C43
:1065E0000AE0681C08D0002D04D000F099FE801B42
:1065F000A84201D9032070BDA069C007F1D1A069EC
:10660000800701D50220A061A069C00511D4A0694E
:1066100080050ED4A06940050BD4A069000508D4FC
:10662000A069800405D4A069800302D4A069C003D6
:1066300003D5FFF787FF012070BD002070BD00006B
:10664000002002400EB50121684601710021017051
:10665000017205F03FFB14A006F05AFA13A1154889
:1066600000F04CF8144805F051FC02A805F07CFD40
:106670006B4601AA11A1FEF72DFE68460279134967
:10668000002A0A71007848710CD003F0A5F9684619
:106690000279FF2166310EA004F04AFA05F01AFBD8
:1066A00000200EBD01200EBD4F4B000041542B6356
:1066B00073710D00BC1C0020881300000D0A2B43D1
:1066C00053513A25642C25640000000084290020E1
:1066D0004E4F524D414C3A2E2E5C5372635C6273A6
:1066E000705F67736D2E632C20253035643A20630C
:1066F0007371203D2025640D0A0000000FB4F0B531
:1067000085B00CA804900DE05C2914D0252922D076
:10671000411C0B9104F0C8F938480068C169C943AD
:106720000906FBD40B9801780029EDD105B0F0BC27
:1067300008BC04B01847401C0B9001786E2903D0A8
:10674000722905D12EA000E02EA004F0ADF91AE0C8
:10675000401C0B90E0E7401C0B900178642914D09A
:106760007329F5D10498254D10C8049008E02046FF
:1067700004F09AF92868C169C9430906FBD4641C6E
:1067800020780028F3D10B98E2E70498002710C87E
:106790006D460490002C1ED003DA2D202870644230
:1067A0006D1C194E20463146FEF7B8FC01463943B0
:1067B00006D00146303170432970241A01276D1C20
:1067C0000A213046FEF7AAFC061EEBDC00202870EA
:1067D0006C460A4D0DE03020287000206870F7E705
:1067E000204604F061F92868C169C9430906FBD451
:1067F000641C20780028F3D1C5E70000BC1C0020F1
:106800000D0000000A0000001027000010B507A1CD
:106810000A48FFF773FF4B22120109A103A000F001
:1068200015F8002800D0012010BD000041542B4372
:106830004950434C4F53453D310D0A00BC1C0020CC
:10684000434C4F5345204F4B0000000070B50C46A1
:10685000054602E0C82000F007FC204606F058F983
:106860000028F7D105F036FA284604F027F9034846
:1068700005F04CFB002800D0012070BD102700005F
:1068800038B5044605F026FA7D2212010AA10BA0B4
:10689000FFF7DCFF00280CD1684605F065FC69466F
:1068A0000978002905D0224607A1FEF713FD002034
:1068B00038BD012038BD00004F4B000041542B4330
:1068C0004349440D000000000D0A25730D0A4F4B8B
:1068D0000000000010B505F0FDF97D2424012246DA
:1068E00005A106A0FFF7B2FF05F0F4F9224602A1C8
:1068F00007A0FFF7ABFF10BD4F4B000041542B43E7
:1069000047434C4153533D224343220D00000000B6
:1069100041542B434950435347503D312C22434D62
:106920004E4554220D000000F0B599B00E460746C2
:10693000012464216846FEF794FC012005F0C4F9A7
:10694000002006F0F7F8334D00202860642000F0A6
:106950008BFB05F0BFF932462FA1684604F0F8F82A
:10696000684604F0ABF8002000F024F92EA1FEF7F1
:1069700083FC002802D0012019B0F0BD05F0AAF96F
:106980003146384604F0B2F8002005F09DF90120A8
:1069900005F09AF926491A200968886205F09AF9E3
:1069A0000120286000F0BCFC7D260546F600214F42
:1069B0000CE0162005F0DEFA002826D0172005F09E
:1069C000D9FA002823D0304600F04EFB00F0A8FC96
:1069D000401BB842EDD3184800F046FB012006F0FA
:1069E000A9F8002005F070F9304600F03DFB0020CA
:1069F00006F0A0F8012005F067F9162005F064F90B
:106A0000172005F061F92046B6E70024E3E70124EA
:106A1000E1E700001800002041542B434950534542
:106A20004E443D25640D00004552524F5200000077
:106A3000BC1C0020307500008813000070B50B4CA2
:106A40000546002908D00AA0616004F071F82846C4
:106A50006168FFF769FF70BD05A0616804F068F820
:106A600028466168FFF760FF012070BD1800002014
:106A70004150503A73656E64206C656E203D202550
:106A8000640D0A0030B599B00D461446642168467D
:106A9000FEF7E7FB05F01EF908A006F039F82346DB
:106AA0002A4608A10F48FFF729FE0F4805F02EFAE5
:106AB000012800D0002019B030BD0000434F4E4ED9
:106AC0004543540041542B43495053544152543D83
:106AD00022544350222C222573222C222573220D6E
:106AE00000000000BC1C0020204E000038B5044609
:106AF00005F0F0F87D2212010AA10BA0FFF7A6FE17
:106B000000280CD1684605F02FFB6946097800295A
:106B100005D0224606A1FEF7DDFB002038BD01208E
:106B200038BD00004F4B000041542B47534E0D0021
:106B30000D0A25730D0A4F4B0000000070B500F0E0
:106B4000EFFB044605F0C6F80A2000F08DFA7D261A
:106B50000C4D360132460CA10CA0FFF777FE002841
:106B600005D000F0DDFB001BA842F3D908E005F0DA
:106B7000B1F8084A08A10CA0FFF768FE002800D071
:106B8000012070BD983A00004F4B00004154453041
:106B90000D0A00001027000053494D434F4D5F532D
:106BA000494D38303043000041542B43474D4D0D83
:106BB00000000000F8B500206946087000F0B0FB46
:106BC0000E4E04460A2000F04FFA684605F0CCFA53
:106BD000054668460078002804D100F0A1FB001BA0
:106BE000B042EFD306480068012804D00A2000F024
:106BF0003BFA2846F8BD0348F9E7000010270000DB
:106C000018000020DC0500000249C868401EC8606A
:106C1000704700003C120020F8B506460D4640368D
:106C2000317D01290DD00121317501688A68520733
:106C300009D5816D20221143816500203075012026
:106C4000F8BD0220F8BD174B6A68D80547109A4274
:106C5000154C8A6A2B6812D05B035B0B1A438A625D
:106C60002968490305D5A1680143A1600A20FFF7FF
:106C700095FA2868800312D5A06838430EE05B03BC
:106C80005B0B9A438A622968490302D5A168814354
:106C9000A1602868800302D5A068B843A0600020E6
:106CA0003075F8BD0110000000270140806D70476D
:106CB0000068006C7047000070B5040006D0A06D3D
:106CC000264600254036002802D006E0012070BD8F
:106CD000E5653575204600F0D1F8A06DC00603D4F7
:106CE00021688868400705D5A06D10210843A0657C
:106CF0003575EBE7A06DFF2201329043022210436D
:106D0000A06588688207920F5A48012A02D10A6852
:106D1000D2072BD1032362689B079A4205D05B42BE
:106D20009A4202D05B009A4209D10A699200920805
:106D30000A6121680A6963681A430A610CE00A69FA
:106D4000920092080A6181680F2292049143816047
:106D500081686268114381602168CA6818239A4378
:106D6000CA602168CA68A3681A43CA6081680122A0
:106D70005206914381608168228F520611438160DF
:106D800020688168C90004D4816801221207114378
:106D900081602068C168384A1140C1602169E0689B
:106DA000022923D000210843216A226B49035200A3
:106DB00011430843616B0843A16989030843E169F2
:106DC000C90308432168CA681043C860A06A014625
:106DD000FF39C23905D0E16A08432168CA68104307
:106DE000C860606A0121012802D00BE00421DAE7C3
:106DF000206A002823D0A06D20221043A065E06DFA
:106E00000843E065206C012820681FD00169C9078C
:106E100003D0016949084900016120684169C90836
:106E2000C900416120684169E26B11434161E56538
:106E3000A06D80088000401CA065002070BD206807
:106E4000C26801231B041A43C260DBE70269FF2307
:106E50009B009A43026120680269636CE66C1A43E6
:106E6000A36C33431A430261206802690A4302613A
:106E7000D3E70000002701401902FEFF00B50068BB
:106E80000A4985B088420ED10948416B4215114329
:106E90004163032000900190002002900520694684
:106EA000000700F075F905B000BD000000240140A6
:106EB00000100240F8B504464069254640350E46AC
:106EC00008280BD02068C068C00709D0A06D202119
:106ED0000843A065002028750120F8BD082700E0C0
:106EE0000C2700F01DFA009011E0701C0FD0002E4E
:106EF00005D000F015FA0099401AB04207D9A06DEC
:106F000004210843A065002028750320F8BD2068EF
:106F100000683842E9D0A06D012149020843A0650C
:106F20002068C16809058A0F0C21002A1AD1226A3B
:106F3000002A17D10268120714D58268530701226C
:106F4000002B08DB43688B434360A06D130298431A
:106F50001043A06506E0A06D20231843A065E06DF6
:106F60001043E065A069002801D12068016000207D
:106F7000F8BD000070B50446216800208968490703
:106F800021D425464035297D01291CD001212975B0
:106F9000E169012904D02046FFF712F9002811D138
:106FA000A16D0A4A1140FF2201321143A16500215F
:106FB000E165297522681C21116021688A68042313
:106FC0001A438A6070BD022070BD0000FEF1FFFF11
:106FD00070B50024024620325179022903D00421E1
:106FE000C16301243CE001680B680E25AB430B60D4
:106FF00001680B685B085B000B601A4B01689942E3
:1070000001D1012121E0174B1433994201D1102104
:107010001BE0144B2833994201D1891515E0114B1F
:107020003C33994201D189140FE00E4B5033994201
:1070300002D10121090408E00A4B6433994202D1CC
:107040000121090501E001210906064B083B5960B1
:107050000121517100211171816B002900D08847F5
:10706000204670BD0800024031B500F059F90446D1
:1070700000F056F90099001B8842F9D338BD000092
:10708000F8B51A4E0546307C0F46012807D001207E
:1070900030741748FFF79EFA010002D021E0022069
:1070A000F8BD0020C04338606C6814E02046FFF74C
:1070B00033FA0F48FFF78EFA01460E48426808235C
:1070C0009A434260426843159A434260002901D0C6
:1070D0003C6006E08034A8686A68C0018018A0425D
:1070E000E4D8002030740846F8BD00008820002055
:1070F00050C3000000200240014840697047000072
:10710000882000200348416802221143416000208A
:107110007047000000200240F8B50C4C1646207C59
:107120000F46012808D0012020740948FFF752FAC1
:107130000025002802D006E00220F8BD65613E600F
:107140000348FFF747FA2574F8BD000088200020A7
:1071500050C300000948416889070CD54168C90738
:1071600003D00749C1600749C16007490161074968
:10717000016100207047012070470000002002409C
:10718000EFCDAB8905040302BFAE9D8C1615141319
:10719000F8B500230124A7E027469F403A4070D06D
:1071A0004D68022D01D0122D14D1DD08AD002D182F
:1071B00000952D6A5E07AC46F50E0F26AE46AE4032
:1071C0006546B543AC460E697546AE4065462E43EE
:1071D000009D2E624D68012D05D0022D03D0112D8A
:1071E00001D0122D16D185680326AC465D00AE464F
:1071F000AE406546B543AC46CE687546AE40654682
:107200002E43866046680D79BE43ED06ED0F9D4026
:107210003543456006685F000325BD40AE46AE437A
:107220000D79B446AE07B60FBE4065462E430660E4
:10723000C6687546AE438D68BD403543C5604D6830
:10724000ED0050D52B4D6E6B26436E639E082A4D84
:10725000B6007519AC46AD689E07360F0F27B740CC
:10726000BD4305273F07B84201D100271AE0234F4D
:10727000B84201D1012715E0214FB84202D10227BF
:1072800010E030E01F4FB84201D103270AE01E4F43
:10729000B84201D1042705E01C4FB84201D10527AF
:1072A00000E00627B7402F436546AF60184D2E68B3
:1072B0004F689643FF0300D516432E606E684F68F3
:1072C0009643BF0300D516436E60AE684F68964381
:1072D000FF0200D51643AE60EE684F689643BF02CA
:1072E00000D51643EE605B1C0A681546DD4000D0F1
:1072F00052E7F8BD001002400000014000040050B9
:1073000000080050000C005000100050001C0050FD
:1073100000040140002A01D08161704781627047FA
:1073200001480068704700001000002070B5024658
:1073300040325378202B1CD11378012B19D0012314
:10734000137024245470046825689D4325600468E4
:1073500025681E03B5432560046825680D43256034
:1073600000680168194301602020507000201070EF
:1073700070BD022070BD70B5024640325378202B9C
:107380001BD11378012B18D00124147024235370BF
:1073900003681D68A5431D6005682B680F2636022B
:1073A000B343090219432960006801682143016061
:1073B000202050700020107070BD022070BD0000B1
:1073C00070B5040006D025464035687800260028B0
:1073D00002D005E0012070BD2E70204600F0F6F8C6
:1073E00024206870206801684908490001600F2165
:1073F0006068090688432168086121688A6801205D
:10740000C00382438A60E1680129A16808D0212273
:107410009202114322689160E168022902D005E0DE
:107420000143F7E701212268C902516021684A68D7
:107430000F4B1A434A602168CA688243CA60616977
:1074400020690843A169090208432168C860216ACC
:10745000E06908432168086020680168012211433F
:1074600001606664202068702663AE70002070BDE5
:1074700000800002FFB5054604464035687883B0B9
:10748000202873D10C98002871D00D9800286ED058
:10749000287801286AD001202870FFF741FF0746AD
:1074A000012200901923D103204601F097FD002806
:1074B00076D1222068704020A870002666640C985F
:1074C00060620D98608566630E980090019704A92C
:1074D0000EC9204601F03AFD002804D0606C2E70E1
:1074E000042860D05CE0618D09208002FF2905D965
:1074F000FF22228501231B06009006E0618D218575
:107500000090208D0123C2B25B062046049901F051
:1075100053FD00970022042120460E9B01F05EFDE2
:1075200000283DD12068416A606A421C6262017095
:10753000208D401E81B22185608D401E608500290E
:1075400021D1608D00281ED0009700228021204686
:107550000E9B01F043FD002822D1608DFF2807D942
:10756000FF22228501231B06009608E02AE01AE08C
:10757000608D20850096208D0123C2B25B062046D7
:10758000049901F019FD608D0028C2D13A462046C9
:107590000E9901F047FD002807D0606C042802D046
:1075A000032007B0F0BD0120FBE721682020C8615F
:1075B00021684A68044B1A404A606870AE702E70A9
:1075C0000020EEE70220ECE700E800FE00B50068CE
:1075D0000D4985B0884214D1032040030090122049
:1075E0000190012002900320039005200490694639
:1075F0000648FFF7CDFD0648816B01229205114335
:10760000816305B000BD0000005800400004005038
:107610000010024070B504000FD0216813480860C4
:1076200021681348086003CC41602068083C216849
:107630008860FFF775FE054608E0012070BDFFF782
:107640006FFE401B302801D9032070BD2068C06840
:107650000028F4D120680269E1688A4201D0016102
:1076600001E004490160002070BD0000CCCC0000A6
:1076700055550000AAAA00000068024901600020D8
:1076800070470000AAAA000002480168491C016076
:10769000704700001000002010B506480168402225
:1076A00011430160002000F007F800F019F80020F5
:1076B00010BD00000020024010B5044607487D219F
:1076C000C9000068FDF714FD00F0A4FF0022214668
:1076D000501E00F02BF8002010BD00001400002008
:1076E00010B50C48416B012211434163816B0204C8
:1076F0001143816300221146501F00F017F8002249
:107700001146901E00F012F800221146501E00F0A3
:107710000DF810BD00100240C106C90E01208840BE
:10772000014908607047000000E100E010B502F078
:1077300045FA10BDBFF34F8F04490348C860BFF33B
:107740004F8F00BFFDE700000400FA0500ED00E0E8
:10775000F8B56649074601250020ED03624B634AF0
:107760004031102F6FD011DC012F77D0022F6CD059
:10777000042F6BD0082F24D1C9680324240321408F
:107780007BD0BD026C10A9427CD0A0E00326584CEF
:107790003604202F0BD0402F35D0FF3F012F10D1C2
:1077A000C968314069D07C04A1426BD096E00B6976
:1077B0000969012731403F04B94203D1990559E0D5
:1077C0002846F8BD01256D04A94203D19907F8D5D3
:1077D0004848F8BDB142FCD111688903F9D5116858
:1077E00003200005014001200005091A09D0091AEB
:1077F00005D0814201D14048F8BD2046F8BD3F4840
:10780000F8BD3F48F8BDC9680125AD06294006D03E
:10781000A942F7D191688907F4D53A48F8BD1168B3
:107820008901FBD5D068D1688002374D000F2D5CEF
:107830000802810FD068491CC0030AD41068C00632
:1078400005D5204606E045E008E023E030E0184694
:1078500000E02E486843FDF74BFCF8BDCC68A40758
:10786000A40F0CD0022C0DD0012C10D0032CF4D17D
:10787000096989050029A3DBF8BD16E002E000F0E4
:10788000D7F9F9E711684907F6D51846F4E700F08B
:10789000DFF9F1E7CC680C26344006D0082CF1D093
:1078A000042CF4D00C2CE3D0E6E700F0B1F9E3E7C8
:1078B000CC680326B6023440F7D00127FF02BC4251
:1078C000E0D07A109442E2D0B442D1D0D4E7A142C1
:1078D000DDD0D1E7916B4902E7D4CDE70122120454
:1078E0009142D4D0C8E700000024F4000010024008
:1078F00000093D008890000020A1070040420F00D1
:1079000080841E00006CDC0258D1000800127A004E
:10791000F8B5044600785E4D800672D55C4E0027AF
:10792000403EB06BC00004D4B06BA9050843B063FF
:10793000012758480168C90511D40168821511430F
:107940000160FFF7EDFC009005E0FFF7E9FC00990E
:10795000401A642837D84F480068C005F5D532680A
:107960000321090560680A400140914208D0810363
:10797000890F032904D13168890301D50120F8BD9D
:107980002A69032109040A4022D0084090421FD0EE
:10799000207880061CD528692A6988430121C904FA
:1079A0000A432A612A698A432A612861C0050FD5E2
:1079B000FFF7B6FC009008E0FFF7B2FC0099411A0F
:1079C0003548814201D90320F8BD28698005F3D5E7
:1079D00061688803800F032805D13268000582435F
:1079E00001400A4332602869032261681204114091
:1079F00008432861002F04D0B06B01210907884398
:107A0000B0632078C00705D0E868A16880088000CE
:107A10000843E8602078800705D5E8680C21884392
:107A2000E1680843E8602078400706D5E86803214C
:107A30008902884321690843E8602078000706D559
:107A4000E86803210903884361690843E8602088E6
:107A5000C00506D5E868032109048843A1690843E5
:107A6000E8602078400606D5E86801218906884349
:107A7000216A0843E8602078000606D5E8680321FB
:107A800089048843E1690843E8600020F8BD0000EC
:107A9000401002400070004088130000F8B5054611
:107AA00053480E460068C007C00FB0420AD2504883
:107AB000016849084900314301600068C007C00FF0
:107AC000B0426FD128784B4C800705D5E068F02193
:107AD0008843A9680843E0602878C00752D06868E6
:107AE000022817D0032818D02168012818D089054A
:107AF000002957DAE168890889000143E160FFF74E
:107B00000FFC69680746022912D003291CD00129FD
:107B100026D033E021688903EAE721688901E7E795
:107B20004907E5E7FFF7FCFBC11B3348814223D837
:107B3000E0680007800F0228F4D123E0FFF7F0FB94
:107B4000C11B2D48814217D8E0680007800F032829
:107B5000F4D117E0FFF7E4FBC11B274881420BD8A3
:107B6000E0680007800F0128F4D10BE0FFF7D8FB95
:107B7000C11B2148814201D90320F8BDE0680007FC
:107B8000800FF3D11A480168C907C90FB1420BD958
:107B9000016849084900314301600068C007C00F0F
:107BA000B04201D00120F8BD2878400706D5E06832
:107BB000072109028843E9680843E0602878000744
:107BC00007D5E0680721C90288432969C90008432D
:107BD000E06000F03DF8E168084A0906090F515CD1
:107BE000C840074908600020FFF766FD0020F8BD87
:107BF00000200240001002408813000048D1000815
:107C000014000020014800687047000014000020A4
:107C1000044805490068C968044A4905490F515C90
:107C2000C8407047140000200010024061D10008D5
:107C3000044805490068C968044A8904490F515C31
:107C4000C8407047140000200010024061D10008B5
:107C500010B5184AD1680C20084004280BD0082819
:107C600010D00C2810D050680004410F0120C00330
:107C7000491C884010BD1068C00601D50E4810BDD3
:107C80000E4810BD0E4810BD88020E4B000F185C48
:107C90000902D368890F491CDB0301D5084A05E0B6
:107CA0001268D20601D5044A00E0044A5043FDF7A9
:107CB0001FFA10BD0010024000093D000024F4002E
:107CC00000127A0058D10008F8B504460078FE4D3D
:107CD000C0074AD0E8680007800F022807D0E8688C
:107CE0000007800F032809D1E868C00306D528687B
:107CF00080033AD56068002873D036E001206268BE
:107D00000004824203D129680143296011E0052360
:107D100001211B0489049A422A6802D10A432A607D
:107D2000F1E782432A602A6802400092286888436B
:107D30002860606800280CD0FFF7F2FA064604E0DD
:107D4000FFF7EEFA801B64287ED828688003F7D5F9
:107D50000BE0FFF7E5FA064604E0FFF7E1FA801BC7
:107D60006428F1D828688003F7D42078800741D5AB
:107D7000E8681F270007800F3F02012807D0E86846
:107D80000007800F032809D1E868C00306D42868DB
:107D9000400717D5E068012823D113E0E0680028E8
:107DA00017D029680922914301432960FFF7B8FAE7
:107DB000064604E0FFF7B4FA801B0228C4D82868FE
:107DC0004007F7D568682169B8430902084368602D
:107DD00010E02868400840002860FFF7A1FA064636
:107DE00005E095E0FFF79CFA801B0228ACD82868D4
:107DF0004007F7D42078C00672D5E868B34E000774
:107E0000800F0AD0E06900282868B1495AD0084399
:107E10002860FFF785FA074644E02868800502D508
:107E2000E069002874D0606A69683140884212D9DC
:107E300001F0FCFE0028AFD16868616AB0430843D6
:107E400068606868000200E0DCE0218C000A090636
:107E5000084368600FE06968B1430143696068687E
:107E6000218C0002000A090608436860606A01F07C
:107E7000DDFE002890D1606A410B0120C003491C3F
:107E80008840E96809060A0F9249895CC84092490E
:107E900008600020FFF710FC22E0FFF741FAC01B4A
:107EA00002288BD828688005F7D56868616AB043D6
:107EB000084368606868218C0002000A09060843CC
:107EC00068600DE088432860FFF72AFA064604E060
:107ED000FFF726FA801B022888D828688005F7D487
:107EE00020787E4E000723D560690028306910D0C5
:107EF000012108433061FFF713FA074604E0FFF75A
:107F00000FFAC01B02287DD830698007F7D50FE033
:107F100001E1400840003061FFF702FA074604E043
:107F2000FFF7FEF9C01B02286CD830698007F7D430
:107F30002078400760D5A86B0027C00005D4A86B47
:107F4000012109070843A863012765480168C9059D
:107F500011D40168821511430160FFF7E1F9009027
:107F600005E0FFF7DDF90099401A64284AD85C481B
:107F70000068C005F5D55648A268824203D1316930
:107F80000143316111E001218902002A07D0052354
:107F90001B029A4203D132690A433261EFE7326928
:107FA00082433261306988433061A06800280ED076
:107FB000FFF7B6F9009006E0FFF7B2F90099411A11
:107FC000484881421ED830698005F5D50DE0FFF79D
:107FD000A7F9009006E0FFF7A3F90099411A41487C
:107FE00081420FD830698005F5D4002F04D0A96BE9
:107FF000012000078143A9632078800630D53A48E4
:10800000421400E080E0A169002916D0AB6801218C
:108010000B43AB606B6B0B436B63016A11430162F3
:10802000FFF77EF9064604E0FFF77AF9801B022885
:108030006AD8A8688007F7D512E0A96849084900FE
:10804000A960016A91430162FFF76AF9064604E0FC
:10805000FFF766F9801B022856D8A8688007F7D476
:10806000A06A002855D0E9680907890F032952D072
:10807000012636060228286805D0B0432860FFF79D
:108080004FF9044642E0B0432860FFF749F907463C
:1080900004E0FFF745F9C01B022835D828688001A5
:1080A000F7D4216BE06AEA680843616BFD231B0487
:1080B0009A4311430843E860286830432860FFF77B
:1080C0002FF9044617E000000010024000E0000015
:1080D0000001000048D100081400002040100240B8
:1080E000007000408813000000000140FFF718F9FD
:1080F000001B022808D828688001F7D509E0FFF79F
:108100000FF9001B022801D90320F8BD286880015F
:10811000F5D40020F8BD0120F8BD0068890050307A
:10812000081800687047006889005030081802601D
:10813000704710B500680B464068C021C943014034
:108140000002000ECC04D870E40E5C708C06A40E05
:108150000904490F9C701970002A0AD101F06EFEC3
:10816000D870587801F06AFE5870987801F066FE71
:108170009870002010BD000030B50B460168896A78
:108180005960016809694904490C996000680468EC
:108190000F482146014088024D04800E18706D0E74
:1081A00049065D70490E99706102490E40242140D4
:1081B000D970002A0AD101F041FE1870587801F0F8
:1081C0003DFE5870987801F039FE9870002030BD5F
:1081D0007F7F7F0070B5040005D025462035687884
:1081E000002802D006E0012070BD00202870204643
:1081F00000F042F8022068702168CA2048622168B5
:1082000053204862204601F02CFEFF210028206800
:1082100003D0416204206870E5E78268154B1A407C
:108220008260226890686368A669184323693343B3
:10823000184390602268E068106120680269238911
:108240001B041A4302612068C26880239A43C260FB
:108250002068C26C92089200C264E26960690243BD
:108260002068C36C1A43C2642068416201206870B0
:10827000002070BDBFFF8FFF00680549884205D10F
:108280000448016901229204114301617047000012
:108290000028004040100240FEB506460446203645
:1082A00030780B46012841D00120307002207070D8
:1082B00020681D46002720358068002A38D04006F7
:1082C00054D5187801F0BAFD287801F0B7FD197877
:1082D0009878090408435978DA780902120411439E
:1082E0000843297809060843D969084359690546AE
:1082F0000D4399695868084300902168CA20486274
:10830000216853204862586AC11F2068F9392FD06C
:1083100081680122520291438160206881681201C4
:1083200091438160FEF7FCFF019056E00220FEBD04
:10833000400600D4DF70187801F088FD02045878F8
:1083400001F084FD00020243987801F07FFD0243B2
:10835000D87800040243287801F078FD0006024333
:10836000D8690243586902431546C2E7DF70ABE79C
:108370008268FF2101318A4382602068816801227E
:10838000120391438160FEF7CBFF019008E0FEF7F6
:10839000C7FF01460198091A7D20C000814215D807
:1083A0002068C068C007F2D02068C56121680098C5
:1083B000486420688168FF2201321BE0FEF7B0FFAD
:1083C0000199411A7D20C000814206D92168FF2011
:1083D0004862032070703770FEBD2068C068800757
:1083E000ECD520680562216800988864206881685F
:1083F00001225202114381602168FF20486201205E
:10840000707037700020FEBDF8B505460446203573
:1084100028780B46012815D00120287002206870AA
:108420005878002A10D001F009FD987801F006FD77
:10843000D8789E78000406435878197800024903DA
:10844000084316E00220F8BDC10603D5EF2108401D
:108450000A305870D87801F0F9FC0604587801F019
:10846000F5FC00020643987801F0F0FC064318780A
:10847000400306432168CA204862216853204862AD
:10848000204601F0EEFC0027002811D110480640DC
:10849000206846602068C16880229143C1602068DE
:1084A000806880060CD4204600F08CF8002807D0A5
:1084B0002168FF204862042068702F700120F8BDF9
:1084C0002168FF204862012068702F700020F8BDED
:1084D0003FFFFF00F8B506460446203630780D46CB
:1084E00001280ED001203070022070702068002713
:1084F0008068002A07D040061AD5287801F09EFC33
:1085000017E00220F8BD400600D4EF70287801F093
:108510009DFC0204687801F099FC00020243A878EF
:1085200001F094FC0243E8780004024300920BE05F
:10853000EF702978A878090408436978EA78090275
:1085400012041143084300902168CA204862216840
:1085500053204862204601F084FC00281FD11849AE
:108560000098084021680860206881680122920410
:10857000914381602969E868084321688A6810434B
:1085800088602068C16880229143C160206880684B
:1085900080060CD4204600F015F8002807D021688A
:1085A000FF2048620420707037700120F8BD2168F8
:1085B000FF2048620120707037700020F8BD000075
:1085C0007F7F7F0070B504460068C168A022914398
:1085D000C160FEF7A5FE7D260546F60006E0FEF723
:1085E0009FFE401BB04201D9032070BD2068C068C7
:1085F0008006F4D5002070BD0422044904280869CF
:1086000002D09043086170471043FBE700E000E0B0
:1086100070470000094910B5401E884201D9012069
:1086200010BD074C60610321081F01F0C7FA00204C
:10863000A06107202061002010BD0000FFFFFF00A7
:1086400000E000E010B5FFF7E3FF10BD70B5024693
:108650002032137D012B1BD0012313750224547586
:10866000046865687026B5436560046865680E68CF
:10867000354365600468A5688026B543A560006839
:10868000846849680C43846053750020107570BD80
:10869000022070BD70B5040005D025462035687DE8
:1086A000002802D006E0012070BD00202875204679
:1086B00000F00AF802206875211D206801F0F6FE1E
:1086C00001206875002070BD10B500680121890780
:1086D00088420CD10648816B01221143816300223C
:1086E00001210F20FFF722F80F20FFF715F810BD2A
:1086F000001002400268D36801210B43D360006878
:1087000002680A43026000207047F8B50546044637
:108710002035287D012817D001272F750220687584
:10872000226890687726FF23B0431B02984390602D
:108730000868502837D00EDC202857D006DC0028E7
:108740004ED0102840D14EE00220F8BD302850D045
:10875000402839D13CE060282DD0702817D0012264
:108760001203801A0ED090422ED1CB684A688968D5
:10877000206801F0CBFE206881680122920311433A
:10878000816021E020688168C908C900F8E7CB68EA
:108790004A688968206801F0B9FE21688868B0439A
:1087A0003043886010E0CA684968206801F0C1FE63
:1087B0005021206806E0CA684968206801F0CAFEB6
:1087C0006021206801F0ADFE6F7500202875F8BDAE
:1087D000CA684968206801F0ACFE40212068F1E7D2
:1087E00000212068EEE710212068EBE720212068B7
:1087F000E8E730212068E5E7704770B50446006877
:1088000001690025C9438907002915DBC168C943EF
:10881000890711D4E91E0161012020752068806953
:108820008007204602D0FFF7E7FF04E000F078F869
:10883000204600F076F8257520680169C94349078C
:1088400017D4C168C943490713D40421C94301613E
:1088500002202075206880698005800F204602D0A4
:10886000FFF7CAFF04E000F05BF8204600F059F87B
:10887000257520680169C943090716D4C168C94331
:10888000090712D40821C94301610420207520681A
:10889000C0698007204602D0FFF7AEFF04E000F079
:1088A0003FF8204600F03DF8257520680169C9436E
:1088B000C90617D4C168C943C90613D41021C943D6
:1088C0000161082020752068C0698005800F20465E
:1088D00002D0FFF791FF04E000F022F8204600F0FC
:1088E00020F8257520680169C943C90708D1C16806
:1088F000C943C90704D1891E0161204600F012F85E
:1089000020680169C943490609D4C168C9434906B9
:1089100005D44021C9430161204600F027F870BD0D
:10892000704770470C4910B5884213D10B4C206832
:10893000401C20600B2807D10948FEF79DFE01204E
:10894000206008A002F0F4F803F096F903F0B0FC00
:1089500003F016FB10BD0000502000200000002096
:108960009C130020646F670A000000007047704786
:1089700070470000F8B502680446D0691168060720
:10898000360F07D1830605D58B0603D5204601F0A7
:10899000B8FEF8BD95682023002E65D0EE07F60FCF
:1089A000FF2721370F4037435ED0C70706D0CF05DA
:1089B00004D501271762E26E3A43E266820708D5C2
:1089C000EA0706D0276802223A62E26E04273A4399
:1089D000E266420708D5EA0706D0256804222A6223
:1089E000E26E02252A43E266020709D50A461A40CA
:1089F000324305D0236808221A62E36E1343E3660C
:108A0000E26E002AC5D0800604D5880602D520462D
:108A100001F077FEE06E000703D42068806840060E
:108A20001CD5204601F05EFE20688168490611D5FC
:108A3000826840218A438260606E00280AD01D4906
:108A40008163606EFEF7C4FA0028A2D0606E816B6D
:108A50008847F8BD2046FFF78BFFF8BD2046FFF79B
:108A600087FF0020E066F8BD2646C7026036002F6B
:108A70000ADA6D0208D50120000510627372B37224
:108A80002046FFF774FFF8BD050605D50D0603D592
:108A9000204601F08DFFF8BD4006FCD54806FAD50A
:108AA0002046146840218C431460737200F0EAF988
:108AB000F8BD0000D1A6000870B5040005D0254619
:108AC0006035687A002802D006E0012070BD0020E1
:108AD0002872204600F026F8242068722068016879
:108AE000490849000160606A002802D0204601F070
:108AF0005AFD204601F044FE0128E7D02068416875
:108B00000922D20291434160206881682A22914360
:108B1000816020680168012211430160204601F054
:108B2000A7FD70BDF0B50568314832490222012326
:108B30000324042685B0854211D1886B550428434F
:108B40008863A0026D465DC569462B48FEF720FB91
:108B5000002211461D20FEF7E9FD1D2016E0274FDB
:108B600005200007BD4215D14D6B0127BF033D43D2
:108B70004D63032149026D465EC56946FEF708FB59
:108B8000002211461B20FEF7D1FD1B20FEF7C4FD7D
:108B900005B0F0BD1A4FBD4211D18D6B01277F0486
:108BA0003D438D630C216D465EC56946FEF7F0FAC4
:108BB000002211461C20FEF7B9FD1C20E6E71148F3
:108BC0008542E5D1886B01252D052843886318204F
:108BD0006D461DC50620049069460748FEF7D8FA81
:108BE000002211460E20FEF7A1FD0E20CEE7000068
:108BF00000480040001002400004005000380140CE
:108C00000044004000500040F0B5034660339C7AB9
:108C1000202C44D100290BD0002A09D001258468DA
:108C20002D03AC4206D10669002E03D1CE0701D038
:108C30000120F0BD1E7A012E31D001261E72416541
:108C4000014640310A834A83FF27AC4204D10269BE
:108C5000002A12D1134A0EE07F22002C08D00125F1
:108C60002D07AC420AD10469002C04D03F2202E057
:108C70000469002C01D08A8300E08F830021C16643
:108C800022229A72197201688A6832438A600068E7
:108C90000168FF222132114301600020F0BD022053
:108CA000F0BD0000FF01000010B504463C493D48FE
:108CB0008C421AD13C49407803F0E4FD3949012245
:108CC000491C2046FFF7A0FF00280DD03448FFF7CD
:108CD000F3FE002802D035A001F02AFF314901221D
:108CE000491C1EE0FEF726FD10BD2D4970318C4257
:108CF0001DD1FF315131807803F0C4FD2949012293
:108D0000891C2046FFF780FF0028EDD02046FFF7A2
:108D1000D3FE002802D025A001F00AFF214901223C
:108D2000891C2046FFF770FF0128DBD010BD1C49CD
:108D3000E0318C4218D1FF310D31C07803F0A2FD33
:108D400018490122C91C2046FFF75EFF0028EDD01C
:108D50002046FFF7B1FE002802D014A001F0E8FE83
:108D600010490122C91CDCE70F49C8398C42DDD10A
:108D7000F431007903F086FD0A490122091D2046DD
:108D8000FFF742FF0028D1D02046FFF795FE0028CC
:108D900002D006A001F0CCFE02490122091DC0E765
:108DA000BC1C002004000020D41E00206572726FDD
:108DB00072207365742049540D0A0000FFB5064601
:108DC00004466036707A83B00D46202858D1002DB5
:108DD0000CD00598002809D00120A1680003814229
:108DE00007D12069002804D1E80702D0012007B08C
:108DF000F0BD307A012843D0012030720020E066B7
:108E000021207072FEF78CFA0190274640370598B2
:108E100038820598788218E0788A401E7882069811
:108E20000090002280212046019B01F0F4FD0028E3
:108E300018D10120A1680003814202D120690028D5
:108E400012D02168287888626D1C788A0028E3D1C6
:108E500006980090002240212046019B01F0DBFD96
:108E6000002808D00320C2E728882168C005C00D6B
:108E70008862AD1CE9E72020707200203072B6E7EE
:108E80000220B4E7704700007D24E40004A001F054
:108E90004FFE2046FEF7E8F8FEF74CFCF6E7000030
:108EA000486172644661756C745F68616E646C657C
:108EB000720D0A0001688A69D243920701D4002228
:108EC0008A6200688169C943C90703D081690122A8
:108ED0001143816170470000F7B5044600680E46F3
:108EE0008069C043C0062CD4202725464035206821
:108EF0008069C04380060FD5701CF8D0002E05D0C5
:108F0000FEF70EFA0299401AB042F0D96F700020B5
:108F1000A87028700320FEBD21681020C861206859
:108F2000C7612046FFF7C6FF20684168064A114026
:108F30004160042060646F700020A87028700120D8
:108F4000FEBD0020FEBD000000E800FEF8B50446AE
:108F50000120164640031D46DAB20090079F002309
:108F6000204600F029F83A462046069900F081F89C
:108F7000002803D0606C04281BD018E02846F5B206
:108F8000012809D02168300A88623A4620460699AD
:108F900000F06FF80028EDD120688562009700226C
:108FA00040212046069B00F019F8002800D003203D
:108FB000F8BD0120F8BD000070B50568049C686824
:108FC0008905890D1204044E114319433040214391
:108FD0000143696070BD0000009800FCF8B51C46B4
:108FE00017460E46054611E0601C0FD0002C05D038
:108FF000FEF796F90699401AA04207D9202040357D
:1090000068700020A87028700320F8BD2868816966
:109010003046884304D00020B842E5D00020F8BD97
:109020000120F9E770B516460D4604461AE03246AF
:1090300029462046FFF750FF002801D0012070BDCF
:10904000002D04D0FEF76CF9801BA8420AD9616C90
:10905000202001436164403460700020A0702070C3
:10906000032070BD20688069C0438006DFD40020E3
:1090700070BD70B516460D4604461CE032462946C2
:109080002046FFF729FF002801D0012070BD681C91
:1090900011D0002D04D0FEF743F9801BA8420AD955
:1090A000616C202001436164403460700020A07036
:1090B0002070032070BD20688069C0438007DDD424
:1090C000002070BDF8B5FF21513126A001F030FD20
:1090D000FF20F530FDF7C8FF03F030FA2E4E2F4D7C
:1090E0000024F078002824D137193879F97C002839
:1090F0001DD0FF291DD0CBB2B821484328492246B4
:10910000095C28A001F014FD2146602041430023A2
:10911000481943703A796A54B8214A432049511892
:109120000A6E4260816540300377F97C0FE00229C6
:10913000E1D02246602042430123501943700021B0
:10914000A9547D22D2004260816540300377641CBF
:1091500041770F2CC5DBF078002802D002F040FAEE
:109160000020F8BD4E4F524D414C3A2E2E5C5372AA
:10917000635C4E42495F72733438352E632C202570
:109180003035643A20737461727420696E6974209A
:1091900072733438350D0A0064290020A0200020A5
:1091A000300000204150503A61646472657373204E
:1091B0003D2025782C70696E203D202564EFBC8C05
:1091C00074797065203D2025640D0A0010B50122D8
:1091D0000520D1030007FEF79DF8012010BD704760
:1091E000F0B52B4887B0C16A04252943C162C16A22
:1091F00029400591C26A80210A43C262C26A0A40BC
:109200000592C16A01242143C162C16A21400591CE
:10921000C16A02263143C162C06A00223040059013
:109220001C491D48FEF776F881210520002209021D
:109230000007FEF76FF819480027694691C1694693
:1092400015480397FDF7A4FF15480190694602975A
:1092500000951148FDF79CFF81200002694691C1ED
:109260000520694600070397FDF792FF2002009052
:109270000197694602970848FDF78AFF60026A462F
:10928000D1C269460448FDF783FF07B0F0BD000076
:1092900000100240A212000000040050A2100000C2
:1092A0000000111010B516481449016015494160BD
:1092B000002181600161416181610122C161C2605F
:1092C0000162FEF77DF8002803D042210EA001F0D4
:1092D0002EFC00210A48FEF729F8002803D0492176
:1092E00009A001F024FC00210548FEF744F80028FD
:1092F00003D0502104A001F01AFC10BD005800401A
:1093000050130020BB7C70002E2E2F5372632F69E8
:1093100032632E630000000010B509480749016060
:10932000062141600749C1608160FEF773F900289A
:1093300003D03B2104A001F0FAFB10BD0030004037
:109340009C130020FF0F00002E2E2F5372632F69F5
:109350007764672E6300000010B50D480B4901606B
:109360004B21C901416000218160C16001618161BF
:109370000C22016242614162FFF79EFB002803D08C
:109380007F2104A001F0D3FB10BD00000048004085
:10939000BC1C00202E2E2F5372632F7573617274C4
:1093A0002E63000070B53049304890B0002412C0E0
:1093B0007F2101608460C4600461FF2144614160D9
:1093C0000838FEF707FF002803D0442128A001F049
:1093D000AEFB00212548FEF7A0FE294E0125B04234
:1093E00025D0684604704470847003940122694655
:1093F0001E480494FFF76EF8002803D051211CA0EA
:1094000001F095FB6846057545758575C4750122A3
:1094100005A91648FEF7F8FF002803D05B2114A029
:1094200001F085FB324600211048FEF77CFE6846BD
:10943000047644768476079409940A940B940C94E9
:1094400008A80D940576FF2001300F90012206A98F
:109450000648FEF721FF002803D06F2104A001F089
:1094600066FB10B070BD0000002800402C200020DA
:109470002E2E2F5372632F7274632E630000000030
:10948000F232000010B50121164886B0890701604C
:10949000002415498460416049110461C160FFF7EF
:1094A000F9F8002803D03E2110A001F040FB012074
:1094B0000003009069460B48FFF727F9002803D006
:1094C00044210AA001F033FB049404A90548059443
:1094D000FFF7BCF8002803D04B2104A001F027FBC4
:1094E00006B010BD50200020FF7C00002E2E2F5310
:1094F00072632F74696D2E630000000010B50D4873
:109500000B490160E1214902416000218160C16095
:1095100001618161C1610C22016242614162FFF718
:10952000CBFA002803D0942103A001F000FB10BD6A
:10953000003801402C1D00202E2E2F5372632F75F2
:10954000736172742E63000010B50D480B49016001
:109550004B21C901416000218160C16001618161CD
:10956000C1610C22016242614162FFF7A5FA002845
:1095700003D0A92103A001F0DAFA10BD0044004095
:109580009C1D00202E2E2F5372632F7573617274F1
:109590002E63000010B50D480B4901604B21C90135
:1095A000416000218160C16001618161C1610C2263
:1095B000016242614162FFF77FFA002803D0BE21B9
:1095C00003A001F0B4FA10BD005000400C1E0020B2
:1095D0002E2E2F5372632F75736172742E630000E9
:1095E000FFF7F4FD03F064FA02F0ACFD104D002625
:1095F0002C460E4F203403F0D5F93846FDF734FDE4
:10960000012002F077FB03F0DFFC7D21286DC9000B
:109610004843FDF729FDE67003F04AFA03F09CFA8F
:1096200000F006FA02F000FEE5E7000088130000F3
:109630006429002010B5064C002202212046FDF7C7
:1096400069FE0121002209032046FDF763FE10BDDB
:109650000004005010B5064C012211032046FDF70E
:1096600059FE012202212046FDF754FE10BD0000E4
:1096700000040050F8B514460D46070047D0FF21FE
:109680002D312448FBF7EDFD2348224629460646A6
:10969000FBF7CEFD204D1422143DEC7429461D48E5
:1096A000FBF7C6FD1B483146143022460646FBF741
:1096B000BFFD384600F06CFF2946AA310F46FBF784
:1096C00000FEE87C072280193946FBF7B1FDE87CF3
:1096D0001830C1B20F48FCF7C5FE2946A231087305
:1096E000000A487328460A21A0300174E87C07224A
:1096F00080193946FBF79CFD21461B31054803F0D4
:1097000021F97D20C000FDF7AFFC0248F8BD002024
:10971000F8BD000054260020942700207047000068
:10972000FEB50025174F26E06C202E46464316480E
:1097300034182046403001900090038D1248221DBD
:10974000815912A001F0F4F90098211D028D0E48F4
:10975000805900F0ADFD01280CD10B4891218259B0
:1097600010A001F0E5F90198211D028D06488059ED
:1097700000F09EFD6D1C78688542D5DB0020786086
:10978000FEBD0000D4120020402B00204150503A72
:109790002578203D2025732C6C656E3D25640D0ACF
:1097A000000000004552524F523A2E2E5C53726315
:1097B0005C757365725F6D69616E2E632C20253058
:1097C00035643A20666C617368207772697465202D
:1097D00066616C73653A25780D0A0000F8B5144689
:1097E0000D4606469F280CD110482F78006B00F0DC
:1097F000CFFE0090042269462846FBF719FD2F7121
:10980000241DF0B2002100F0C5F90848016B0029C1
:1098100001D101210163084622462946FFF72AFFAC
:1098200021461B31FDF70AF90120F8BD642900200B
:1098300030B50025039CD2B2012909D0FD2925D0DD
:10984000182926D0192927D02029027027D027E0EF
:1098500015498B4218D0092C16DC144B07D0214631
:109860002031027002254170082C09D00AE01969E4
:10987000012907D102702F2141700225002000E04C
:1098800001201861284630BD002030BD027018212B
:1098900006E00270112103E00270052100E01321AF
:1098A0004170022030BD00007FFF0000D412002074
:1098B000F8B506460C46D01EC1B215462046FCF748
:1098C000D1FD81B260191F38427F037F1002184317
:1098D00040BA814203D01249FF20087519E0B12235
:1098E00021460F48FBF7A4FC0D489621143007468B
:1098F000FBF7B7FC21461431E27C0D463846FBF7F6
:1099000097FCE07C401900F038FE0549AA31FBF7CE
:10991000D8FCB12202493046FBF78AFCF8BD0000B2
:109920003128002030B595B0002203A91548FEF774
:1099300000FC002204A91348FEF71EFC6846C17B08
:109940006D46084664300E906846837B0C93427BDC
:10995000501E0D90287C0B906C7C0A94AD7C00907E
:1099600009950295019408A001F0E2F809A8FBF717
:1099700019FC0446014609A001F0DAF8204615B0AA
:1099800030BD00002C20002025752C25752C257558
:109990002C25752C25752C25750D0A0025640D0ABE
:1099A0000000000010B50C46002801D0002C00D1AA
:1099B0000124014610220648FBF73AFC0448112214
:1099C000047401460348FBF733FC002010BD00007F
:1099D0002B1200208027002010B55422054906488C
:1099E00000F066FC012803D19C2104A001F0A0F83E
:1099F00010BD000064290020D0F001084552524FEC
:109A0000523A2E2E5C5372635C757365725F6D699A
:109A1000616E2E632C20253035643A20666C6173AC
:109A2000682077726974652066616C73650D0A0041
:109A3000FEB5454E0020B060FFF774FF00F0A8FDB2
:109A4000424904220D468862B068603528182831E2
:109A5000FBF7EEFB3E48B4680078241D28553D48CE
:109A6000641C00782855284640380179641C295523
:109A70004079641C2855394837490068641CFBF755
:109A800060FDFBF7A3FF010A2955641C2855641CDF
:109A9000B46000F04DFA012700261420FDF7E4FA27
:109AA0006020314641432E480C185D20005D01289E
:109AB00044D16078002841D100253BE0A80002464F
:109AC0000C3202928958201801900090806801F0B1
:109AD00019F8034600981C4983600095A06D8968B9
:109AE00000783A0184461948603040186146FFF713
:109AF0009FFE002816D01449144B8968603308185B
:109B000011498860A26D02991818525801990831BC
:109B1000FBF78EFBA16D029809580B488068091865
:109B20000948816001982A46836831460DA000F0FB
:109B3000FFFF6D1CA16D8868A842BFDC761C7F1CEE
:109B40000F2EAADB0020FEBDD412002064290020C5
:109B50003C1200204012002000007A4444120020F1
:109B6000A02000204150503A675F7273343835535B
:109B7000656E64627566665B25645D2E527334386B
:109B800035446174615B25645D203D202530327869
:109B90000D0A000010B5054A5070117003220349E8
:109BA0000348FBF745FB002010BD000028120020F1
:109BB0009127002010B5FDF7BDFD10BD8307FF22E2
:109BC000DB0E9A408907090E994000280BDA00073E
:109BD000000F0838830808489B001818C36993438E
:109BE0000B43C3617047830804489B001B18186827
:109BF000904308431860704700ED00E000E400E087
:109C000010B505A000F094FF7D20C000FDF72CFAF0
:109C1000FDF790FD10BD000050656E6453565F481F
:109C2000616E646C65720D0A0000000070B5174922
:109C30000023CA681206120F18D18A6B154CD50082
:109C4000134A02D51268224009E08E6B01252D07C8
:109C50002E438E6312688E6B2240AE438E63A24207
:109C600004D103218903884200D101230A480168F5
:109C700049084900194301600068C007C00F9842B5
:109C800001D0012070BD002070BD00000010024016
:109C900000700040001800000020024010B502488B
:109CA000FEF768FE10BD0000BC1C002070B56021EE
:109CB0000246174B4A43D1184031497F154D0029C0
:109CC00004D00C462970012C02D015E02C78FAE75C
:109CD0009B5C114A10180371C1740020D070AA2136
:109CE0000EA000F025FF54220B491A4800F0E0FABC
:109CF000012803D0002070BD012070BDB22116A044
:109D000000F016FF7D200001FDF7AEF9F4E700003A
:109D1000A020002024000020642900204E4F524D36
:109D2000414C3A2E2E5C5372635C4E42495F727313
:109D30003438352E632C20253035643A2074686918
:109D400073206E6F7420657870656E6420626F7822
:109D50000D0A0000D0F001084552524F523A2E2E03
:109D60005C5372635C4E42495F72733438352E63C4
:109D70002C20253035643A2020666C61736820778A
:109D800072697465206572726F720D0A0D0A0000A7
:109D900070B5B821484306460D4C9521A25D0DA033
:109DA00000F0C6FE3519284668300A21FBF759FA3B
:109DB000A05D2C466034207268786072A888010A21
:109DC000A172E0722889010A2173607370BD0000DE
:109DD000300000204E4F524D414C3A2E2E5C5372B3
:109DE000635C4E42495F72733438352E632C2025F4
:109DF0003035643A2061646472203D202530325849
:109E00000D0A0D0A0000000010B504460246FF21AD
:109E10001D31084800F08CFE60200749604340185F
:109E20004078002801D0012010BD204601F030FC10
:109E3000002010BD08D20008A020002001090A223D
:109E400000075143000F4018C0B27047002102E0E4
:109E50000A38C0B2491C0A28FAD20907090E084379
:109E6000704770B504460068C168490613D40021E4
:109E7000C943C160FDF754FA7D260546F60006E0A9
:109E8000FDF74EFA401BB04201D9032070BD206897
:109E9000C0684006F4D5002070BD08B569460820AA
:109EA000FCF7AAFA6846007808BD0000F8B5054638
:109EB0000C461C4802F062F91B4E0122202130465C
:109EC000FDF728FAE1B22846FCF7ACFAA41CA2B2CE
:109ED000FF2329461548FEF771FF00222021304656
:109EE000FDF718FAFF20F530FDF7BEF814210D48F4
:109EF000FBF7B7F90B4802F041F905460949801E06
:109F00004C19203CC1B2E77FA67F0648FCF78AFACD
:109F1000E07FB84204D1A07FB04201D12846F8BD0D
:109F20000020F8BD40260020000400500C1E002038
:109F300070B500F0F3FD0024054D03E02046FFF767
:109F400063FF641C68688442F8DB002070BD000079
:109F50002400002070B5A0B00E46054614468021AE
:109F60006846FBF77EF9A2086946284600F01CF80F
:109F7000224669463046FBF75BF920B070BD70B5EC
:109F8000A0B00E460546144680216846FBF769F9E5
:109F9000A2086946284600F007F82246694630467E
:109FA000FBF746F920B070BD30B5002304E010C8BF
:109FB0009D005B1C4C519BB29342F8D330BD000016
:109FC000F7B58AB01F210A98C90644180320000477
:109FD0001546844273D2FDF7BDF80A98E70940069A
:109FE000C60E2020841BA54200D82C460120F90172
:109FF000C006081820225A490390FFF7D5FF002019
:10A000003218574992008A58521C02D1401C20280D
:10A01000F6D3A0425CD2E809401C06900020039AC7
:10A02000049008904F480592824204D2BE214EA06F
:10A0300000F07EFDFEE708A904A8FDF721F801283D
:10A0400009D1FF20F530FDF70FF808A904A8FDF7A6
:10A0500017F8012801D000200AE0C621089A2AE05A
:10A060000B9982008A5881198B003D49401CCA50C7
:10A07000A042F5D320223A49039800F033F9012891
:10A080002DD1FDF739F80246D12144A000F050FD52
:10A0900008A904A8FCF7F4FF01280AD00120F9015F
:10A0A000C006081820222E4900F01CF9012807D00C
:10A0B0000BE0089AD4212CA000F03AFD05E04CE01A
:10A0C000FDF71AF80246DA212CE0FDF71BF844E010
:10A0D00022460B990A9800F005F9012810D0A542F4
:10A0E00022D00B99A00041180B910A990026401824
:10A0F0002D1B7F1C0A90202D00D876E7202475E7C1
:10A10000FCF7FAFF0246E42124A000F011FD2246EC
:10A110000B990A9800F0E6F80128D6D1FCF7ECFF7D
:10A120000246E7212BA0C7E7FCF7ECFF012807D088
:10A13000FF21073135A000F0FBFC00200DB0F0BD81
:10A14000FF213FA000F0F4FCFCF7DCFF012804D164
:10A15000FF21033148A000F0EBFC0120EEE70000F6
:10A16000E4280020005000084552524F523A2E2E4B
:10A170005C5372635C666C6173682E632C202530BF
:10A1800035643A206572617365206572726F722062
:10A19000203D202558200D0A0D0A00004552524F3F
:10A1A000523A2E2E5C5372635C666C6173682E6348
:10A1B0002C20253035643A2057726974655F4E6FE4
:10A1C000436865636B2066616C73652025780D0AB2
:10A1D0000D0A00004552524F523A2E2E5C537263C4
:10A1E0005C666C6173682E632C20253035643A20E0
:10A1F00057726974655F4E6F436865636B20657263
:10A20000726F722025780D0A0D0A00004E4F524DD4
:10A21000414C3A2E2E5C5372635C666C6173682EFF
:10A22000632C20253035643A20666C617368207792
:10A230007269746520737563636573730D0A00003A
:10A240004552524F523A2E2E5C5372635C666C61DB
:10A2500073682E632C20253035643A2048414C5FCA
:10A26000464C4153485F4C6F636B2066616C73656D
:10A270000D0A0D0A000000004552524F523A2E2E90
:10A280005C5372635C666C6173682E632C202530AE
:10A2900035643A2048414C5F464C4153485F4C6F0F
:10A2A000636B206572726F720D0A0D0A0000000068
:10A2B000F7B50024A0B00E462546970808E03046C2
:10A2C00002F038FBA2006946641C6D1C8850361DE4
:10A2D000A742F4DC2A4669462098FFF771FE23B0B6
:10A2E000F0BD0000F7B582B0164605460024114FB8
:10A2F0001BE0BD4204D229460FA000F019FCFEE786
:10A30000A000039900900A5829460220FCF704FF98
:10A31000012808D1039900980A5829460220FCF721
:10A32000FBFE012804D0641C2D1DB442E1D30020A3
:10A3300005B0F0BD0050000865726173652065725C
:10A34000726F7220203D202558200D0A0000000069
:10A35000F7B50024A0B00E462546970808E0304621
:10A3600002F0E8FAA2006946641C6D1C8850361D94
:10A37000A742F4DC2A4669462098FFF721FE23B065
:10A38000F0BD10B5FDF7D6F910BD10B5FDF77CF99D
:10A39000FEF758F910BD000030B528499DB00A6895
:10A3A0000320C0028243CB14D2180A6024490A69F0
:10A3B00082430A610D2000908815029001200590CB
:10A3C00002200A90032080040C905D01D8020195C0
:10A3D0000D900B956846FDF777FC002800D0FEE74E
:10A3E0000F20179000240320189019941A9401212B
:10A3F0001B9417A8FDF752FB002800D0FEE727208A
:10A400000E90109411940F9512940EA8FDF780FAF7
:10A41000002800D0FEE7FDF7F5FB7D21C900FAF723
:10A4200067FEFEF7F7F80420FEF7E6F80022114673
:10A43000501EFDF77BF91DB030BD000000700040DC
:10A440004010024010480168821511430160C16844
:10A450000E4A1140C16001680D4A114001608168D7
:10A46000490849008160016801229204914301601A
:10A47000C168FD2212049143C160002101610649B7
:10A480000448886070470000001002400C40FF88BC
:10A49000F6FFF6FE0050000800ED00E010B502489F
:10A4A000FEF7ABF910BD000050200020F0B50268A7
:10A4B0000124A407124D134E134FA04205D0A84209
:10A4C00003D0B04201D0B84204D113467022934366
:10A4D0004A681A43A04205D0A84203D0B04201D036
:10A4E000B84204D103231B029A43CB681A4302608B
:10A4F0008A68C2620968816201214161F0BD000081
:10A5000000040040000801400014014030B5846898
:10A51000FF252D021B021343AC430B4323438360EF
:10A5200030BD826870239A430A4307210A43826040
:10A53000704730B5036A046A640864000462846981
:10A54000F025AC43120122430A24A3430B4382614A
:10A55000036230BD30B5036A1024A34303628469EB
:10A56000036A0F252D031203AC432243A024A34307
:10A57000090119438261016230BD08B50146042218
:10A580006846FAF755FE009800F002F8009008BD02
:10A5900001B500206A4601460302505C491C18437D
:10A5A0000429F9DB08BD10B5818CC90707D0016803
:10A5B0004A6801235B049A43836A1A434A60818C88
:10A5C000890707D501684A6801231B049A43C36AB7
:10A5D0001A434A60818C490707D501684A680123FC
:10A5E0009B049A43036B1A434A60818C090707D581
:10A5F00001684A680123DB039A43436B1A434A60AC
:10A60000818CC90607D50268916801231B03994311
:10A61000836B19439160818C890607D501688A682C
:10A6200001235B039A43C36B1A438A60818C4906FA
:10A6300012D503685A6801210905046C8A43224334
:10A640005A60026C8A4207D10268516803235B0595
:10A650009943436C19435160818C090607D5016801
:10A660004A680123DB04806C9A4302434A6010BDB0
:10A67000F8B500260446C666FCF752FE054620687B
:10A680000068124F000709D501212B460022490519
:10A690002046009700F0BFF900280DD1206800681F
:10A6A00040070BD501212B46002289052046009743
:10A6B00000F0B1F9002801D00320F8BD202060345B
:10A6C0006072A07226720020F8BD0000FFFFFF013B
:10A6D00010B5806A0022014640314A834A82FEF763
:10A6E00047F910BD01680A68FF2321339A430A60C5
:10A6F00001688A68520852008A60202160308172A5
:10A70000704770B50246403201466031938B8D7AB6
:10A710000C460168222D05D0886908221043886103
:10A72000022070BD496A01268568360389B2B542A8
:10A7300002D10569002D0BD01940436D5D1C4565A4
:10A740001970518B491E0904090C518307D015E07B
:10A75000456D19402980416D891C4165F1E701680B
:10A760000A68FF2321339A430A6001688A68520805
:10A7700052008A602021A172FEF796FA002070BD77
:10A78000FEB50446016880682269E3691043626986
:10A79000102700261A4310430A683546784B1A40A2
:10A7A00002430A6020684168032212039143E26871
:10A7B00011434160734A2168A069914201D0226A25
:10A7C00010438A680B231B029A4302438A606E4A35
:10A7D00020686E4990420CD1C8688007800F06D06F
:10A7E000012843D002283FD0032826D124E00127A6
:10A7F00023E0674A90420AD1C8680C21084031D052
:10A80000042833D008282FD00C2816D114E0614A30
:10A81000904227D0604A904224D05A4A90420CD1AC
:10A82000C9680320800201401CD01015091A1DD0F0
:10A83000091A19D0814200D108270220FCF788FFAD
:10A840000190504B514922684039D81300929A42E6
:10A8500035D1002F0CD0022F0DD0042F12D0082F8D
:10A860001CD113E00027E8E70227E6E70427E4E726
:10A87000FDF7CEF908E00868C00601D5474805E0B5
:10A88000474803E0FDF7E4F9002873D062685100FF
:10A890005118814202D81103814201D2012569E099
:10A8A000010E06025008002330185941FAF74AFCFD
:10A8B000032109023B4A411A914259D9EEE7E26964
:10A8C00082422DD13B0000F06EF90906080B2419D5
:10A8D0002424241F2400019812E0FDF7A9F90FE0B9
:10A8E00008686168C00602D548082F4A01E02F4A6F
:10A8F00048088018FAF7FCFB86B20BE0FDF7A8F9D0
:10A90000616840004A08F4E76168012248081204BF
:10A91000EFE70125310909013007400F084327E01F
:10A920003B0000F040F909070A0D061D060606293E
:10A930000600B3E7FDF76CF914E0FDF779F911E0D3
:10A9400008686168C00602D54A08144801E0144846
:10A950004A081018FAF7CCFB81B20098C16009E0F0
:10A96000FDF776F961684A088018FAF7C1FB80B2F2
:10A970002168C8602846FEBD61684A08E9E7000012
:10A98000F369FFEF004800400038014040100240EA
:10A9900000440040004C00400050004000093D00D1
:10A9A0000024F400FFFC0F0000127A000048E801C8
:10A9B0006921095C212901D00220704702464032FA
:10A9C000518A002912D0012381681B03994202D1C8
:10A9D0000169002915D0C16C4B1CC364006809785B
:10A9E0008162508A401E50820020704701680A68C8
:10A9F00080239A430A600068016840221143016085
:10AA0000F2E7C16C03680988C905C90D9962C16C78
:10AA1000891CC164E5E7FFB581B017460E460446C0
:10AA20000A9D1DE0681C1BD0002D05D0FCF778FCAA
:10AA30000499401AA84213D920680168FF22A13264
:10AA400091430160206881684908490081602020A5
:10AA500060346072A07200202072032005B0F0BD47
:10AA60002068C1693046884304D00020B842D9D05C
:10AA70000020F3E70120F9E710B50248FDF77AFF5F
:10AA800010BD00002C1D002010B50248FDF772FF1C
:10AA900010BD00009C1D002010B50248FDF76AFFA4
:10AAA00010BD00000C1E002010B50146FF2301223E
:10AAB0000148FEF783F910BDBC1C002010B5044608
:10AAC000014606A000F034F82046FAF7E9FB82B20E
:10AAD000044B21460448FEF771F910BD4150503A2D
